:02000000832853
:100008007E1480314001440803190B280C2830283D
:1000180098121430F40000000130F4027408031D33
:10002800162817280F2840013C181B281E284001B5
:1000380098162028400198122830F5000000013059
:10004800F5027508031D29282A2822284001981638
:100058007608013A0139F6000130BD0644010D0861
:10006800031D3728382849280A300C02031C3D286C
:100078003E2849283D300C020318432844284928C3
:100088004E018D1E482849285328FF304001C300DF
:10009800FF30C200FF30C100FF30C00079284001A6
:1000A8004008F0004108F1004208F2004308F3005C
:1000B8000130F035F10DF20DF30D890B5D28730851
:1000C800C3007208C2007108C1007008C0001F3068
:1000D80044010C0203187128722879280130400164
:1000E800C0070030C13DC23DC33D4E018D124401E1
:1000F8008D018C018F157E01BF127E1009008428A6
:100108004C308400833085001200C0001200C1000A
:100118001200C2001200C3001200C400F601BA01A6
:10012800BB01BC01BD01BE01BF017E1040019C287E
:1001380001304001B600B001B1010230C5007E01B6
:100148003914400112147E01B916BA1640019816E6
:1001580092127E019501B80140011812121218116D
:1001680012117E01B801391639154001B701B801DD
:10017800400137083804031DC228C328CF2804309B
:100188007E01B80040011215121241011D08033901
:1001980008389D00DA2810307E01B800400112119D
:1001A800121641011D08033910389D001E088F39A9
:1001B80020389E009E13FC309E051D149D149D182A
:1001C800E628E728E328400137082E3E8600870105
:1001D80041011C08810001304001B7070030B83DDB
:1001E8003808803AA00080302002031DFD28023024
:1001F8003702031C00290129BC2841011D107E017A
:10020800B8013912391140011211121218111812BD
:100218002F082E02031811291229162903307E01EE
:100228009200192903307E0194004601950110308F
:100238009500F0304B019E051F081F3980389F003C
:100248001F12F0309F051E121F309D009E1744019B
:100258008F120F130F16900105307D019300440192
:100268008C018D0102309100CF308E050E158F174D
:100278004E018D12971244010E148F15FE30450160
:100288008D0001309000E0308F058F170E088F39F0
:1002980010388E008E17460195019401961780300C
:1002A80095007E01BD01BE01BD164E0116168B17C5
:1002B80040014308B5004208B4004108B3004008B3
:1002C800B2000F303205A000F0303305A100FF3036
:1002D8003405A200FF303505A30003302006A03006
:1002E8000319210622042304031D7B297C29A5293F
:1002F80001304001C400B001B1013208A000330848
:10030800A1003408A2003508A3000B30A336A20CC4
:10031800A10CA00C890B8A2920080139BE003208DB
:10032800A0003308A1003408A2003508A300043057
:10033800A336A20CA10CA00C890B9C2920080F390C
:10034800C5004E018C1EA929AA29C7298C12013083
:100358004001BA070030BB3D0130B0070030B13D65
:100368003108803AA00083302002031DBD29E930FE
:100378003002031CC029C129C729E8304001B00058
:100388000330B100C40140014408031DCC29CD2924
:10039800D5290C18D029D32940019816D529400110
:1003A80098123E080319D929DA291A2B3D08BC00EE
:1003B8005C2946019501003040010C180130BC0051
:1003C8005C29803046019500DF290C1CEC29ED29B9
:1003D800F729BA01BB014B019C0146019501013087
:1003E8004001B600DF2900303B02653003193A02AC
:1003F800031CFF29002A022A460195014001360301
:10040800031D072A082A0B2A80304601950040015F
:10041800B601DF290C1C112A122A152AA401A501EC
:10042800192A8030A4000030A50024084601950050
:10043800003040010C180130BC005C293B08A100C9
:100448003A08A0000730A136A00C890B272A2018EB
:100458002E2A2F2A322AA601A701362A8030A60082
:100468000030A700260846019500003040010C180E
:100478000130BC005C290C1C422A432A442ADD298D
:100488003B08A1003A08A0000730A136A00C890B50
:10049800492A2018502A512A542AA801A901582A61
:1004A8008030A8000030A900280846019500DF29FF
:1004B8003B08A1003A08A0000730A136A00C890B20
:1004C800612A2008B900802A1830B900BB2A3830C0
:1004D800B900BB2A5830B900BB2A7830B900BB2A0A
:1004E8009830B900BB2AB830B900BB2AD830B90057
:1004F800BB2AFF30B900BB2A39080F39A000A10177
:100508002108003A0319892ABB2A2008003A03194E
:10051800682A013A03196B2A033A03196E2A013A29
:100528000319712A073A0319742A013A0319772A19
:10053800033A03197A2A013A03197A2A0F3A031956
:100548007D2A013A03197A2A033A03197A2A013AC9
:100558000319772A073A0319742A013A0319712AE9
:10056800033A03196E2A013A03196B2ABB2A390880
:1005780046019500003040010C180130BC005C2990
:1005880000303B02FB3003193A02031CCC2ACD2A67
:10059800F12A3603031DD12AD22AE02A0C18D52ABB
:1005A800D62AE02A3F080319DA2ADC2A0130DD2A94
:1005B8000030BF00BA01BB0100300C180130B60092
:1005C80001303B02C33003193A02031CEC2AED2A1E
:1005D800F12AFA30BA000030BB003F03031DF52AA8
:1005E800F62AF92A46019501162B07304506031D00
:1005F800FE2AFF2A032B403046019500162B0130B6
:100608003B025E3003193A02031C0B2B0C2B0F2BF9
:10061800AA01AB01132B4030AA000030AB002A0816
:100628004601950040013F08BC005C294408031DB1
:100638001E2B1F2B222BAC01AD01292B4508A00036
:10064800A1012008AC002108AD002D08003A0319CB
:100658002E2B5C292C08003A0319DD29013A0319CD
:10066800E529033A0319E929013A03190E2A073A39
:100678000319222A013A03195C2A033A03193F2A6B
:10068800013A0319C42A0F3A0319C42A5C2983289A
:0A069800FF34FF34FF34FF34013457
:020000040001F9
:04000E00CD3FE73DBE
:02001400EF3FBC
:00000001FF
