:02000000832853
:100008007E14803140013F0803190B280C28302842
:1000180098121430F40000000130F4027408031D33
:10002800162817280F28400142181B281E284001AF
:1000380098162028400198122830F5000000013059
:10004800F5027508031D29282A2822284001981638
:100058007608013A0139F6000130C30644010D085B
:10006800031D3728382849280A300C02031C3D286C
:100078003E2849283D300C020318432844284928C3
:100088004E018D1E482849285328FF304001BD00E5
:10009800FF30BC00FF30BB00FF30BA0079284001B8
:1000A8003A08F0003B08F1003C08F2003D08F30074
:1000B8000130F035F10DF20DF30D890B5D28730851
:1000C800BD007208BC007108BB007008BA001F3080
:1000D80044010C0203187128722879280130400164
:1000E800BA070030BB3DBC3DBD3D4E018D124401F9
:1000F8008D018C018F157E01BF127E1009008428A6
:1001080067308400833085001200BA001200BB00FB
:100118001200BC001200BD001200BE001200BF0099
:10012800F601C001C101C201C301C4017E10400132
:100138009D2801304001B600B001B1010230C50070
:100148000230BE007E013914400112147E01B91636
:10015800BA164001981692127E019501B801400125
:1001680018121212181112117E01B8013916391518
:100178004001B701B801400137083804031DC528FC
:10018800C628D22804307E01B80040011215121288
:1001980041011D08033908389D00DD2810307E0113
:1001A800B80040011211121641011D080339103818
:1001B8009D001E088F3920389E009E13FC309E0536
:1001C8001D149D149D18E928EA28E62840013708DF
:1001D8002E3E8600870141011C0881000130400144
:1001E800B7070030B83D3808803AA00080302002B8
:1001F800031D002902303702031C03290429BF28E4
:1002080041011D107E01B801391239114001121146
:100218001212181118122F082E0203181429152962
:10022800192903307E0192001C2903307E019400B5
:100238004601950110309500F0304B019E051F08CE
:100248001F3980389F001F12F0309F051E121F3083
:100258009D009E1744018F120F130F169001053051
:100268007D01930044018C018D0102309100CF3053
:100278008E050E158F174E018D12971244010E141C
:100288008F15FE3045018D0001309000E0308F055C
:100298008F170E088F3910388E008E17460195017A
:1002A80094019617803095007E01BD01BE01BD16F0
:1002B8004E0116168B1740013D08B5003C08B400E6
:1002C8003B08B3003A08B2000F303205A000F03006
:1002D8003305A100FF303405A200FF303505A30027
:1002E80003302006A0300319210622042304031D2D
:1002F8007E297F29A82901304001BF00B001B10142
:100308003208A0003308A1003408A2003508A30071
:100318000B30A336A20CA10CA00C890B8D29200848
:100328000139C4003208A0003308A1003408A20033
:100338003508A3000430A336A20CA10CA00C890B2D
:100348009F2920080F39C5004E018C1EAC29AD2904
:10035800CA298C1201304001C0070030C13D01306C
:10036800B0070030B13D3108803AA0008F3020023C
:10037800031DC029A1303002031CC329C429CA297E
:10038800A0304001B0000F30B100BF0140013F086C
:10039800031DCF29D029D8290C18D329D6294001E3
:1003A8009816D8294001981244080319DC29DD2938
:1003B800322B4308C2005F294601950100304001F5
:1003C8000C180130C2005F29803046019500E229EF
:1003D8000C1CEF29F029FA29C001C1014B019C012D
:1003E8004601950101304001B600E2290030410282
:1003F800653003194002031C022A032A052A460114
:10040800950140013603031D0A2A0B2A0E2A803063
:10041800460195004001B601E2290C1C142A152A50
:10042800182AA401A5011C2A8030A4000030A500C8
:10043800240846019500003040010C180130C20024
:100448005F294108A1004008A0000730A136A00C90
:10045800890B2A2A2018312A322A352AA601A7010F
:10046800392A8030A6000030A700260846019500EA
:10047800003040010C180130C2005F290C1C452ACD
:10048800462A472AE0294108A1004008A000073071
:10049800A136A00C890B4C2A2018532A542A572A13
:1004A800A801A9015B2A8030A8000030A90028080B
:1004B80046019500E2294108A1004008A000073044
:1004C800A136A00C890B642A2008B900832A1830A9
:1004D800B900BE2A3830B900BE2A5830B900BE2A41
:1004E8007830B900BE2A9830B900BE2AB830B900B1
:1004F800BE2AD830B900BE2AFF30B900BE2A390852
:100508000F39A000A1012108003A03198C2ABE2A3C
:100518002008003A03196B2A013A03196E2A033A94
:100528000319712A013A0319742A073A0319772A19
:10053800013A03197A2A033A03197D2A013A031961
:100548007D2A0F3A0319802A013A03197D2A033AB2
:1005580003197D2A013A03197A2A073A0319772AD7
:10056800013A0319742A033A0319712A013A031943
:100578006E2ABE2A390846019500003040010C1841
:100588000130C2005F2902303E02031CCC2ACD2A6A
:10059800D62A093045060319D22AD42A0130D52A89
:1005A8000030BE0000304102FB3003194002031C3A
:1005B800DE2ADF2A032B3603031DE32AE42AF22A64
:1005C8000C18E72AE82AF22A3E080319EC2AEE2A30
:1005D8000130EF2A0030BE00C001C10100300C1804
:1005E8000130B60001304102C33003194002031C38
:1005F800FE2AFF2A032BFA30C0000030C1003E0358
:10060800031D072B082B0B2B460195012E2B0730BA
:1006180045060319102B112B172B09304506031D0E
:10062800162B172B1B2B4030460195002E2B013023
:1006380041025E3003194002031C232B242B272B75
:10064800AA01AB012B2B4030AA000030AB002A08CE
:100658004601950040013E08C2005F293F08031D7E
:10066800362B372B3A2BAC01AD01412B4508A000A6
:10067800A1012008AC002108AD002D08003A03199B
:10068800462B5F292C08003A0319E029013A03197F
:10069800E829033A0319EC29013A0319112A073A00
:1006A8000319252A013A03195F2A033A0319422A32
:1006B800013A0319C72A0F3A0319C72A013A03193D
:1006C800C72A5F298328FF34FF34FF34FF340234FC
:0206D8000134EB
:020000040001F9
:04000E00CD3FE73DBE
:02001400EF3FBC
:00000001FF
