:0400000080318128A2
:100008007E1480312700130803195D28930120000E
:100018000C08F0000230F036890B0F2870080339FD
:10002800F2003E08F0000230F035890B18285930EC
:100038007007F10071087207860087010108F30054
:1000480002307306031D34283C08F000F101F01B50
:10005800F103F035F10D7008B8077108B93D422871
:100068007308F000F101F01BF1037008B80771087C
:10007800B93D7308031942287308BC007208BE0012
:10008800B91F4A286030B8070930B93D3908803AA5
:10009800F00089307002031D532860303802031CB9
:1000A8005A28A0302000B807F630B93D01302000AA
:1000B800BD002000911E6B287808203E860087012D
:1000C8002300190881007808013E0F39F800200044
:1000D800111E7F287608770603197D2877080739C7
:1000E800303E86008701010823009A000130F70797
:1000F8007F28210011127E10090080318328713079
:100108008400843085005930860000308700113023
:10011800843192248031F601F701F801F901203089
:100128008400003085002030843198247E1020001F
:1001380080319E2821001B08873970389B009B1747
:10014800FC309B053C008C012100971322000D1305
:100158008D1321000D178D1724000D178D172300FF
:100168008E1221008E1222008E163D00A501240059
:100178008E1223000C1121000C153D009201240061
:100188000C1523008C1121008C153D0093012400CF
:100198008C1523000D1021000D1022000D103D00BC
:1001A800980124000D1023008D1021008D102200CD
:1001B8008D103D00990124008D1023000C102100A2
:1001C8000C1022000C103D00900124000C1023009C
:1001D8008C1021008C1022008C103D00910124000D
:1001E8008C1040302000C0000230C100C201C20A99
:1001F80083319623803123008E1121008E15133010
:100208003C00BD0024008E1122008E1024303D00D9
:10021800A10024008E1021008D1724008D172100C5
:100228000D1724000D1784315B248031FF30200026
:10023800D8002000381C232922008E1625292200E8
:100248008E1220003D08031944298431822480310C
:10025800003A03194429BD018B138B173808C100D4
:100268003908C200890D893B8909C300C4000330DD
:10027800C5008331CF2380310A3084312524803171
:100288008231512280313F0803194E2A0130D807A4
:100298003F085802031C9F29D601D70100000130EE
:1002A8002000D6070030D73D5708803ACE0083306B
:1002B8004E02031D6129E8305602031C52294030C2
:1002C80020006906031D89293F08CE00CF014E088A
:1002D800C0004F08C1006030C2000930C30083313C
:1002E800062380314108D1004008D0005108C100E0
:1002F8005008C0003908C3003808C20083310623FB
:10030800803140083F02FF3ED50041306906031D99
:100318009F293F08CE00CF014E08C0004F08C100FA
:100328003908C3003808C20083315323803140089C
:100338003F02FF3ED50021000D132000D8013F08E1
:10034800580203181D2969083039D2006908CE00FF
:100358000230CE35890BAD294E083039D3006908F3
:10036800CE000430CE35890BB6294E083039D4007A
:10037800403069020318CF29530884314124803161
:1003880020005208843141248031200054088431EF
:1003980041248031412A80306902031CF929690807
:1003A800803ECE00FF3003180030CF0058084E06BC
:1003B8004F04031DEC293F308431412480313F3004
:1003C8008431412480313F30843141248031412AB5
:1003D800003084314124803100308431412480311F
:1003E8000030843141248031412A403069060319A4
:1003F800012A41306906031D392A55085806031D8C
:10040800122A3F308431412480313F3084314124E5
:1004180080313F30843141248031412A0030843199
:1004280041248031003084314124803100308431CE
:1004380041248031412A0030843141248031003008
:100448008431412480310030843141248031412A73
:10045800403084314124803140308431412480311E
:100468004030843141248031412A6908003A031917
:100478001F2A3F3A03192C2A412A84318A248031C1
:10048800003A031D4A2A20003F08D8000130200006
:10049800D807A32921000D171D298431042482318E
:1004A80075082000C5007408C400440A0319450AE9
:1004B8000319080000304502303003194402031CB8
:1004C800772A003045023A30031944020318772A84
:1004D8003A08C3000430C335890B6F2A4308440720
:1004E800D03EBA00080000304502413003194402EA
:1004F800031C902A003045024730031944020318B0
:10050800902A3A08C3000430C335890B882A430867
:100518004407C93EBA00080000304502613003199B
:100528004402031CA92A003045026730031944021B
:100538000318A92A3A08C3000430C335890BA12A35
:1005480043084407A93EBA0008000D304406450494
:10055800031908000A30440645040319F42A032B3A
:100568003A08BF003F08031DBC2A21000D17FF2AC7
:1005780021000D13FF2A3A08E900FF2A3A1CC72A6E
:1005880022000D14C92A22000D1020003A08C300C9
:100598000130C336890BCD2A431CD52A22008D147D
:1005A800D72A22008D1020003A08C3000230C33633
:1005B800890BDB2A431CE32A22000C14E52A2200BB
:1005C8000C1020003A08C3000330C336890BE92A0F
:1005D800431CF12A22008C14FF2A22008C10FF2AC7
:1005E8003B086E3A0319B42A1E3A0319BF2A063A81
:1005F8000319C22AFF2A2000BB01BA0108004408D7
:10060800BB000800C501C11F102BC009C109C00AE1
:100618000319C10A0130C500C31F192BC209C30938
:10062800C20A0319C30A0130C506C601C70140083A
:1006380041040319462B0130C400C11B2B2B013088
:10064800C035C10D890B242B0130C407212B013083
:10065800C635C70D890B2C2B41084302031D362BC9
:1006680040084202031C3D2B4008C2024108C33B1C
:1006780046140130C136C00C890B3E2B0130C40230
:10068800031D2B2B450803194E2BC609C709C60A9B
:100698000319C70A4708C1004608C0000800F50149
:1006A800C31F5D2BC209C309C20A0319C30A01305B
:1006B800F500C11F642BC009C109C00A0319C10A8A
:1006C800400841040319892B0130F400C11B742B25
:1006D8000130C035C10D890B6D2B0130F4076A2B31
:1006E80041084302031D7A2B40084202031C802B59
:1006F8004008C2024108C33B0130C136C00C890B17
:10070800812B0130F402031D742B75080319912BFA
:10071800C209C309C20A0319C30A4308C10042082F
:10072800C0000800603040064104031DA82B4208A1
:100738000319A32B033023009C003C30BD2B02304F
:1007480023009C00E430BD2B4030400602300319E2
:100758004106031DB32B23009C018A30BD2B4208A0
:100768000319BA2B23009C01CF30BD2B23009C0119
:10077800B9309B001E159F151E131F129E161D16BD
:100788001E129D17F601F701F801F9018B170B17D7
:100798002100911608004508FF3ECC00FF300318E1
:1007A8000030CD00CD1B08004108C6004208C70034
:1007B8004308C8004408C9004C08CA000230CA35BA
:1007C800890BE32B4A08890AED2BC936C80CC70CDC
:1007D800C60C890BE92B46080F39CB000A304B02AF
:1007E8000318F92B4B08303EFB2B4B08373E84315E
:1007F80025248331FF302000CC07FF30CD3DD62B98
:1008080023009D1C092C1D121D1679087806031D4E
:10081800122CFF30F400FF30F50008007908203E64
:100828008600870101082000C2007908013E0F39BF
:10083800F9004208C000C1014008F4004108F50071
:100848000800C0007608F4007708F4020F30740539
:10085800F50008307502031C342C21001116262CD3
:1008680076080739303E860087012000400881005D
:100878000130F607210011160800F4008B13083028
:10088800F500F41B4A2C22000D17512C22000D17DD
:10089800000000000000000022000D137435F40071
:1008A800FF30F5077508031D452C8B17080020003D
:1008B800B801B901BD0124000C158C1521000C15D7
:1008C8008C1523000C118C110C30270092000C3071
:1008D80091008B150B178B1708000034FF34013477
:1008E8000234013400340234FF34FF34023400345B
:1008F800013402340134FF340034083476087706B2
:10090800031D882C0130080000300800760877069F
:10091800031D902C0130080000300800FE00120072
:100928001E00FE0B932C0034640080010131890BFA
:04093800992C0034C2
:020000040001F9
:04000E00EC0FFB30C8
:00000001FF
